{
  "address": "0x0a5F41285862A2D5889E4d0f879d10fd356ba0cb",
  "abi": [
    {
      "inputs": [
        {
          "internalType": "address",
          "name": "bridge_",
          "type": "address"
        }
      ],
      "stateMutability": "nonpayable",
      "type": "constructor"
    },
    {
      "inputs": [
        {
          "internalType": "bytes4",
          "name": "actual",
          "type": "bytes4"
        },
        {
          "internalType": "bytes4",
          "name": "expected",
          "type": "bytes4"
        }
      ],
      "name": "InvalidTargetBridge",
      "type": "error"
    },
    {
      "anonymous": false,
      "inputs": [
        {
          "indexed": true,
          "internalType": "uint256",
          "name": "ticketId",
          "type": "uint256"
        }
      ],
      "name": "RetryableTicketCreated",
      "type": "event"
    },
    {
      "inputs": [
        {
          "internalType": "address",
          "name": "destination",
          "type": "address"
        },
        {
          "internalType": "bytes",
          "name": "data",
          "type": "bytes"
        },
        {
          "internalType": "bytes",
          "name": "crossChainTxParams",
          "type": "bytes"
        }
      ],
      "name": "sendCrossChainMessage",
      "outputs": [],
      "stateMutability": "payable",
      "type": "function"
    }
  ],
  "transactionHash": "0x90cd09d734ce45924210769fcfb025397aeefb15fac958c052331c73a4f55710",
  "args": [
    "0x9a28e783c47bbeb813f32b861a431d0776681e95"
  ],
  "numDeployments": 1,
  "solcInputHash": "129082cb9bea0890dbcbed675f220a6b",
  "bytecode": "0x60a060405234801561001057600080fd5b506040516109e53803806109e5833981810160405281019061003291906100d1565b808073ffffffffffffffffffffffffffffffffffffffff1660808173ffffffffffffffffffffffffffffffffffffffff168152505050506100fe565b600080fd5b600073ffffffffffffffffffffffffffffffffffffffff82169050919050565b600061009e82610073565b9050919050565b6100ae81610093565b81146100b957600080fd5b50565b6000815190506100cb816100a5565b92915050565b6000602082840312156100e7576100e661006e565b5b60006100f5848285016100bc565b91505092915050565b6080516108cd6101186000396000605601526108cd6000f3fe60806040526004361061001e5760003560e01c8063a8ea9bd014610023575b600080fd5b61003d6004803603810190610038919061044f565b61003f565b005b61004a83838361004f565b505050565b600061007d7f00000000000000000000000000000000000000000000000000000000000000008585856100b2565b9050807fde92b5b7839f4a2c640f5e3bbb66d415458dadc57a487b0c7fa562ed7c9c896f60405160405180910390a250505050565b6000808573ffffffffffffffffffffffffffffffffffffffff16637ee9432960006040518263ffffffff1660e01b81526004016100ef9190610529565b602060405180830381865afa15801561010c573d6000803e3d6000fd5b505050506040513d601f19601f820116820180604052508101906101309190610559565b905060008380602001905181019061014891906106d9565b905080600001517bffffffffffffffffffffffffffffffffffffffffffffffffffffffff191663f99ba2be60e01b7bffffffffffffffffffffffffffffffffffffffffffffffffffffffff1916146101e457806000015163f99ba2be60e01b6040517fe06c77730000000000000000000000000000000000000000000000000000000081526004016101db929190610716565b60405180910390fd5b8173ffffffffffffffffffffffffffffffffffffffff1663679b6ded8260200151888460400151856060015186608001518760a001518860c001518960e001518e6040518a63ffffffff1660e01b81526004016102489897969594939291906107e5565b60206040518083038185885af1158015610266573d6000803e3d6000fd5b50505050506040513d601f19601f8201168201806040525081019061028b919061086a565b92505050949350505050565b6000604051905090565b600080fd5b600080fd5b600073ffffffffffffffffffffffffffffffffffffffff82169050919050565b60006102d6826102ab565b9050919050565b6102e6816102cb565b81146102f157600080fd5b50565b600081359050610303816102dd565b92915050565b600080fd5b600080fd5b6000601f19601f8301169050919050565b7f4e487b7100000000000000000000000000000000000000000000000000000000600052604160045260246000fd5b61035c82610313565b810181811067ffffffffffffffff8211171561037b5761037a610324565b5b80604052505050565b600061038e610297565b905061039a8282610353565b919050565b600067ffffffffffffffff8211156103ba576103b9610324565b5b6103c382610313565b9050602081019050919050565b82818337600083830152505050565b60006103f26103ed8461039f565b610384565b90508281526020810184848401111561040e5761040d61030e565b5b6104198482856103d0565b509392505050565b600082601f83011261043657610435610309565b5b81356104468482602086016103df565b91505092915050565b600080600060608486031215610468576104676102a1565b5b6000610476868287016102f4565b935050602084013567ffffffffffffffff811115610497576104966102a6565b5b6104a386828701610421565b925050604084013567ffffffffffffffff8111156104c4576104c36102a6565b5b6104d086828701610421565b9150509250925092565b6000819050919050565b6000819050919050565b6000819050919050565b600061051361050e610509846104da565b6104ee565b6104e4565b9050919050565b610523816104f8565b82525050565b600060208201905061053e600083018461051a565b92915050565b600081519050610553816102dd565b92915050565b60006020828403121561056f5761056e6102a1565b5b600061057d84828501610544565b91505092915050565b600080fd5b60007fffffffff0000000000000000000000000000000000000000000000000000000082169050919050565b6105c08161058b565b81146105cb57600080fd5b50565b6000815190506105dd816105b7565b92915050565b6105ec816104e4565b81146105f757600080fd5b50565b600081519050610609816105e3565b92915050565b6000610100828403121561062657610625610586565b5b610631610100610384565b90506000610641848285016105ce565b6000830152506020610655848285016105fa565b6020830152506040610669848285016105fa565b604083015250606061067d848285016105fa565b606083015250608061069184828501610544565b60808301525060a06106a584828501610544565b60a08301525060c06106b9848285016105fa565b60c08301525060e06106cd848285016105fa565b60e08301525092915050565b600061010082840312156106f0576106ef6102a1565b5b60006106fe8482850161060f565b91505092915050565b6107108161058b565b82525050565b600060408201905061072b6000830185610707565b6107386020830184610707565b9392505050565b610748816102cb565b82525050565b610757816104e4565b82525050565b600081519050919050565b600082825260208201905092915050565b60005b8381101561079757808201518184015260208101905061077c565b838111156107a6576000848401525b50505050565b60006107b78261075d565b6107c18185610768565b93506107d1818560208601610779565b6107da81610313565b840191505092915050565b6000610100820190506107fb600083018b61073f565b610808602083018a61074e565b610815604083018961074e565b610822606083018861073f565b61082f608083018761073f565b61083c60a083018661074e565b61084960c083018561074e565b81810360e083015261085b81846107ac565b90509998505050505050505050565b6000602082840312156108805761087f6102a1565b5b600061088e848285016105fa565b9150509291505056fea2646970667358221220527c0d860433fcda7dd32bd32d6536895b3779c0f5f297dc39c71c9de27faf8064736f6c634300080b0033",
  "devdoc": {
    "kind": "dev",
    "methods": {},
    "version": 1
  },
  "userdoc": {
    "kind": "user",
    "methods": {},
    "version": 1
  },
  "storageLayout": {
    "storage": [],
    "types": null
  }
}