{
  "address": "0xBB35Bc010d870558F6E559aD45b865059317aD9E",
  "abi": [
    {
      "inputs": [
        {
          "internalType": "address",
          "name": "bridge_",
          "type": "address"
        }
      ],
      "stateMutability": "nonpayable",
      "type": "constructor"
    },
    {
      "inputs": [
        {
          "internalType": "bytes32",
          "name": "actual",
          "type": "bytes32"
        },
        {
          "internalType": "bytes32",
          "name": "expected",
          "type": "bytes32"
        }
      ],
      "name": "InvalidTargetBridge",
      "type": "error"
    },
    {
      "anonymous": false,
      "inputs": [
        {
          "indexed": true,
          "internalType": "uint256",
          "name": "ticketId",
          "type": "uint256"
        }
      ],
      "name": "RetryableTicketCreated",
      "type": "event"
    },
    {
      "inputs": [
        {
          "internalType": "address",
          "name": "destination",
          "type": "address"
        },
        {
          "internalType": "bytes",
          "name": "data",
          "type": "bytes"
        },
        {
          "internalType": "bytes",
          "name": "crossChainTxParams",
          "type": "bytes"
        }
      ],
      "name": "sendCrossChainMessage",
      "outputs": [],
      "stateMutability": "payable",
      "type": "function"
    }
  ],
  "transactionHash": "0xa7d5a158ed0e9c00a5a213ac48832a3541e07048bbc3035aeb0e4f668103a015",
  "args": [
    "0x9a28e783c47bbeb813f32b861a431d0776681e95"
  ],
  "numDeployments": 2,
  "solcInputHash": "cff41992717d4c774941177b98ba0c24",
  "bytecode": "0x60a060405234801561001057600080fd5b506040516109bd3803806109bd833981810160405281019061003291906100d1565b808073ffffffffffffffffffffffffffffffffffffffff1660808173ffffffffffffffffffffffffffffffffffffffff168152505050506100fe565b600080fd5b600073ffffffffffffffffffffffffffffffffffffffff82169050919050565b600061009e82610073565b9050919050565b6100ae81610093565b81146100b957600080fd5b50565b6000815190506100cb816100a5565b92915050565b6000602082840312156100e7576100e661006e565b5b60006100f5848285016100bc565b91505092915050565b6080516108a56101186000396000605601526108a56000f3fe60806040526004361061001e5760003560e01c8063a8ea9bd014610023575b600080fd5b61003d60048036038101906100389190610449565b61003f565b005b61004a83838361004f565b505050565b600061007d7f00000000000000000000000000000000000000000000000000000000000000008585856100b2565b9050807fde92b5b7839f4a2c640f5e3bbb66d415458dadc57a487b0c7fa562ed7c9c896f60405160405180910390a250505050565b6000808573ffffffffffffffffffffffffffffffffffffffff16637ee9432960006040518263ffffffff1660e01b81526004016100ef9190610523565b602060405180830381865afa15801561010c573d6000803e3d6000fd5b505050506040513d601f19601f820116820180604052508101906101309190610553565b905060008380602001905181019061014891906106b1565b905080600001517ff99ba2be00af9942e39d17830153f4e6000e00d50e0db314b50f3740e70a701560001b146101de5780600001517ff99ba2be00af9942e39d17830153f4e6000e00d50e0db314b50f3740e70a701560001b6040517ff0cd8b830000000000000000000000000000000000000000000000000000000081526004016101d59291906106ee565b60405180910390fd5b8173ffffffffffffffffffffffffffffffffffffffff1663679b6ded8260200151888460400151856060015186608001518760a001518860c001518960e001518e6040518a63ffffffff1660e01b81526004016102429897969594939291906107bd565b60206040518083038185885af1158015610260573d6000803e3d6000fd5b50505050506040513d601f19601f820116820180604052508101906102859190610842565b92505050949350505050565b6000604051905090565b600080fd5b600080fd5b600073ffffffffffffffffffffffffffffffffffffffff82169050919050565b60006102d0826102a5565b9050919050565b6102e0816102c5565b81146102eb57600080fd5b50565b6000813590506102fd816102d7565b92915050565b600080fd5b600080fd5b6000601f19601f8301169050919050565b7f4e487b7100000000000000000000000000000000000000000000000000000000600052604160045260246000fd5b6103568261030d565b810181811067ffffffffffffffff821117156103755761037461031e565b5b80604052505050565b6000610388610291565b9050610394828261034d565b919050565b600067ffffffffffffffff8211156103b4576103b361031e565b5b6103bd8261030d565b9050602081019050919050565b82818337600083830152505050565b60006103ec6103e784610399565b61037e565b90508281526020810184848401111561040857610407610308565b5b6104138482856103ca565b509392505050565b600082601f8301126104305761042f610303565b5b81356104408482602086016103d9565b91505092915050565b6000806000606084860312156104625761046161029b565b5b6000610470868287016102ee565b935050602084013567ffffffffffffffff811115610491576104906102a0565b5b61049d8682870161041b565b925050604084013567ffffffffffffffff8111156104be576104bd6102a0565b5b6104ca8682870161041b565b9150509250925092565b6000819050919050565b6000819050919050565b6000819050919050565b600061050d610508610503846104d4565b6104e8565b6104de565b9050919050565b61051d816104f2565b82525050565b60006020820190506105386000830184610514565b92915050565b60008151905061054d816102d7565b92915050565b6000602082840312156105695761056861029b565b5b60006105778482850161053e565b91505092915050565b600080fd5b6000819050919050565b61059881610585565b81146105a357600080fd5b50565b6000815190506105b58161058f565b92915050565b6105c4816104de565b81146105cf57600080fd5b50565b6000815190506105e1816105bb565b92915050565b600061010082840312156105fe576105fd610580565b5b61060961010061037e565b90506000610619848285016105a6565b600083015250602061062d848285016105d2565b6020830152506040610641848285016105d2565b6040830152506060610655848285016105d2565b60608301525060806106698482850161053e565b60808301525060a061067d8482850161053e565b60a08301525060c0610691848285016105d2565b60c08301525060e06106a5848285016105d2565b60e08301525092915050565b600061010082840312156106c8576106c761029b565b5b60006106d6848285016105e7565b91505092915050565b6106e881610585565b82525050565b600060408201905061070360008301856106df565b61071060208301846106df565b9392505050565b610720816102c5565b82525050565b61072f816104de565b82525050565b600081519050919050565b600082825260208201905092915050565b60005b8381101561076f578082015181840152602081019050610754565b8381111561077e576000848401525b50505050565b600061078f82610735565b6107998185610740565b93506107a9818560208601610751565b6107b28161030d565b840191505092915050565b6000610100820190506107d3600083018b610717565b6107e0602083018a610726565b6107ed6040830189610726565b6107fa6060830188610717565b6108076080830187610717565b61081460a0830186610726565b61082160c0830185610726565b81810360e08301526108338184610784565b90509998505050505050505050565b6000602082840312156108585761085761029b565b5b6000610866848285016105d2565b9150509291505056fea264697066735822122019655b7fccf3c643e5283fbc1015efafb34b75cc68a356f5ba9b1a0259bdf54164736f6c634300080b0033",
  "devdoc": {
    "kind": "dev",
    "methods": {},
    "version": 1
  },
  "userdoc": {
    "kind": "user",
    "methods": {},
    "version": 1
  },
  "storageLayout": {
    "storage": [],
    "types": null
  }
}